{
  "contractName": "Election",
  "abi": [
    {
      "constant": true,
      "inputs": [],
      "name": "candidatesCount",
      "outputs": [
        {
          "name": "",
          "type": "uint256"
        }
      ],
      "payable": false,
      "stateMutability": "view",
      "type": "function"
    },
    {
      "constant": true,
      "inputs": [
        {
          "name": "",
          "type": "uint256"
        }
      ],
      "name": "candidates",
      "outputs": [
        {
          "name": "id",
          "type": "uint256"
        },
        {
          "name": "name",
          "type": "string"
        },
        {
          "name": "voteCount",
          "type": "uint256"
        }
      ],
      "payable": false,
      "stateMutability": "view",
      "type": "function"
    },
    {
      "constant": true,
      "inputs": [
        {
          "name": "",
          "type": "address"
        }
      ],
      "name": "voters",
      "outputs": [
        {
          "name": "",
          "type": "bool"
        }
      ],
      "payable": false,
      "stateMutability": "view",
      "type": "function"
    },
    {
      "inputs": [],
      "payable": false,
      "stateMutability": "nonpayable",
      "type": "constructor"
    },
    {
      "anonymous": false,
      "inputs": [
        {
          "indexed": true,
          "name": "_candidateId",
          "type": "uint256"
        }
      ],
      "name": "votedEvent",
      "type": "event"
    },
    {
      "constant": false,
      "inputs": [
        {
          "name": "_candidateId",
          "type": "uint256"
        }
      ],
      "name": "vote",
      "outputs": [],
      "payable": false,
      "stateMutability": "nonpayable",
      "type": "function"
    }
  ],
  "bytecode": "0x608060405234801561001057600080fd5b506100556040518060400160405280600e81526020017f4d69726f736c617620536b6f726f00000000000000000000000000000000000081525061016a60201b60201c565b6100996040518060400160405280601881526020017f4b6f6c696e6461204772616261722d4b697461726f766963000000000000000081525061016a60201b60201c565b6100dd6040518060400160405280600f81526020017f5a6f72616e204d696c616e6f766963000000000000000000000000000000000081525061016a60201b60201c565b6101216040518060400160405280600b81526020017f4976616e205065726e617200000000000000000000000000000000000000000081525061016a60201b60201c565b6101656040518060400160405280600f81526020017f4b61746172696e612050656f766963000000000000000000000000000000000081525061016a60201b60201c565b610289565b600260008154600101919050819055506040518060600160405280600254815260200182815260200160008152506001600060025481526020019081526020016000206000820151816000015560208201518160010190805190602001906101d39291906101e4565b506040820151816002015590505050565b828054600181600116156101000203166002900490600052602060002090601f016020900481019282601f1061022557805160ff1916838001178555610253565b82800160010185558215610253579182015b82811115610252578251825591602001919060010190610237565b5b5090506102609190610264565b5090565b61028691905b8082111561028257600081600090555060010161026a565b5090565b90565b6103e0806102986000396000f3fe608060405234801561001057600080fd5b506004361061004c5760003560e01c80630121b93f146100515780632d35a8a21461007f5780633477ee2e1461009d578063a3ec138d14610152575b600080fd5b61007d6004803603602081101561006757600080fd5b81019080803590602001909291905050506101ae565b005b6100876102cc565b6040518082815260200191505060405180910390f35b6100c9600480360360208110156100b357600080fd5b81019080803590602001909291905050506102d2565b6040518084815260200180602001838152602001828103825284818151815260200191508051906020019080838360005b838110156101155780820151818401526020810190506100fa565b50505050905090810190601f1680156101425780820380516001836020036101000a031916815260200191505b5094505050505060405180910390f35b6101946004803603602081101561016857600080fd5b81019080803573ffffffffffffffffffffffffffffffffffffffff169060200190929190505050610394565b604051808215151515815260200191505060405180910390f35b6000803373ffffffffffffffffffffffffffffffffffffffff1673ffffffffffffffffffffffffffffffffffffffff16815260200190815260200160002060009054906101000a900460ff161561020457600080fd5b60008111801561021657506002548111155b61021f57600080fd5b60016000803373ffffffffffffffffffffffffffffffffffffffff1673ffffffffffffffffffffffffffffffffffffffff16815260200190815260200160002060006101000a81548160ff0219169083151502179055506001600082815260200190815260200160002060020160008154809291906001019190505550807ffff3c900d938d21d0990d786e819f29b8d05c1ef587b462b939609625b684b1660405160405180910390a250565b60025481565b6001602052806000526040600020600091509050806000015490806001018054600181600116156101000203166002900480601f0160208091040260200160405190810160405280929190818152602001828054600181600116156101000203166002900480156103845780601f1061035957610100808354040283529160200191610384565b820191906000526020600020905b81548152906001019060200180831161036757829003601f168201915b5050505050908060020154905083565b60006020528060005260406000206000915054906101000a900460ff168156fea165627a7a723058209968c64d9aa15e2137e7613c63f64458bbeedcd7aeff0fb16071df776fb37eda0029",
  "source": "pragma solidity ^0.5.0;\n\ncontract Election {\n    //Struktura kandidata\n    struct Candidate {\n      uint id;\n      string name;\n      uint voteCount;\n    }\n\n    //Pohrana racuna koji su glasali\n    mapping(address => bool) public voters;\n    //Pohrana kandidata\n    //Dohvati kandidata\n    mapping(uint => Candidate) public candidates;\n    //Brojac glasova\n    uint public candidatesCount;\n\n    //Event za glasanje\n    event votedEvent (\n      uint indexed _candidateId\n      );\n\nconstructor() public {\n      addCandidate(\"Miroslav Skoro\");\n      addCandidate(\"Kolinda Grabar-Kitarovic\");\n      addCandidate(\"Zoran Milanovic\");\n      addCandidate(\"Ivan Pernar\");\n      addCandidate(\"Katarina Peovic\");\n      \n    }\n\n    function addCandidate (string memory _name) private {\n      ++ candidatesCount;\n      candidates[candidatesCount] = Candidate(candidatesCount, _name, 0);\n    }\n\n    function vote (uint _candidateId) public {\n      //Provjera da glasac nije glasao\n      require(!voters[msg.sender]);\n\n      //Mora biti validan kandidat\n      require(_candidateId > 0 && _candidateId <= candidatesCount);\n\n      //Spremi glas\n      voters[msg.sender] = true;\n\n      //Azuriranje broja glasova\n      candidates[_candidateId].voteCount ++;\n\n      //Okidac na dogadaj\n      emit votedEvent(_candidateId);\n    }\n\n}\n",
  "sourcePath": "C:/Users/ZELEMBRZ/Desktop/ProjektBA-master/contracts/Election.sol",
  "compiler": {
    "name": "solc",
    "version": "0.5.8+commit.23d335f2.Emscripten.clang"
  },
  "schemaVersion": "3.0.11",
  "updatedAt": "2019-06-29T19:08:48.335Z",
  "devdoc": {
    "methods": {}
  },
  "userdoc": {
    "methods": {}
  }
}